{
  "_format": "hh-sol-artifact-1",
  "contractName": "Token",
  "sourceName": "contracts/Token.sol",
  "abi": [
    {
      "inputs": [],
      "stateMutability": "nonpayable",
      "type": "constructor"
    },
    {
      "inputs": [
        {
          "internalType": "address",
          "name": "account",
          "type": "address"
        }
      ],
      "name": "balanceOf",
      "outputs": [
        {
          "internalType": "uint256",
          "name": "",
          "type": "uint256"
        }
      ],
      "stateMutability": "view",
      "type": "function"
    },
    {
      "inputs": [],
      "name": "owner",
      "outputs": [
        {
          "internalType": "address",
          "name": "",
          "type": "address"
        }
      ],
      "stateMutability": "view",
      "type": "function"
    },
    {
      "inputs": [],
      "name": "totalSupply",
      "outputs": [
        {
          "internalType": "uint256",
          "name": "",
          "type": "uint256"
        }
      ],
      "stateMutability": "view",
      "type": "function"
    },
    {
      "inputs": [
        {
          "internalType": "address",
          "name": "to",
          "type": "address"
        },
        {
          "internalType": "uint256",
          "name": "amount",
          "type": "uint256"
        }
      ],
      "name": "transfer",
      "outputs": [],
      "stateMutability": "nonpayable",
      "type": "function"
    }
  ],
  "bytecode": "0x60806040526040518060400160405280601181526020017f4f6e65205069656369657320546f6b656e0000000000000000000000000000008152506000908051906020019061004f92919061013c565b506040518060400160405280600381526020017f4f505400000000000000000000000000000000000000000000000000000000008152506001908051906020019061009b92919061013c565b50620f42406002553480156100af57600080fd5b50600254600460003373ffffffffffffffffffffffffffffffffffffffff1673ffffffffffffffffffffffffffffffffffffffff1681526020019081526020016000208190555033600360006101000a81548173ffffffffffffffffffffffffffffffffffffffff021916908373ffffffffffffffffffffffffffffffffffffffff160217905550610240565b828054610148906101df565b90600052602060002090601f01602090048101928261016a57600085556101b1565b82601f1061018357805160ff19168380011785556101b1565b828001600101855582156101b1579182015b828111156101b0578251825591602001919060010190610195565b5b5090506101be91906101c2565b5090565b5b808211156101db5760008160009055506001016101c3565b5090565b600060028204905060018216806101f757607f821691505b6020821081141561020b5761020a610211565b5b50919050565b7f4e487b7100000000000000000000000000000000000000000000000000000000600052602260045260246000fd5b6105398061024f6000396000f3fe608060405234801561001057600080fd5b506004361061004c5760003560e01c806318160ddd1461005157806370a082311461006f5780638da5cb5b1461009f578063a9059cbb146100bd575b600080fd5b6100596100d9565b604051610066919061038b565b60405180910390f35b610089600480360381019061008491906102aa565b6100df565b604051610096919061038b565b60405180910390f35b6100a7610128565b6040516100b49190610350565b60405180910390f35b6100d760048036038101906100d291906102d3565b61014e565b005b60025481565b6000600460008373ffffffffffffffffffffffffffffffffffffffff1673ffffffffffffffffffffffffffffffffffffffff168152602001908152602001600020549050919050565b600360009054906101000a900473ffffffffffffffffffffffffffffffffffffffff1681565b80600460003373ffffffffffffffffffffffffffffffffffffffff1673ffffffffffffffffffffffffffffffffffffffff1681526020019081526020016000205410156101d0576040517f08c379a00000000000000000000000000000000000000000000000000000000081526004016101c79061036b565b60405180910390fd5b80600460003373ffffffffffffffffffffffffffffffffffffffff1673ffffffffffffffffffffffffffffffffffffffff168152602001908152602001600020600082825461021f919061040d565b9250508190555080600460008473ffffffffffffffffffffffffffffffffffffffff1673ffffffffffffffffffffffffffffffffffffffff168152602001908152602001600020600082825461027591906103b7565b925050819055505050565b60008135905061028f816104d5565b92915050565b6000813590506102a4816104ec565b92915050565b6000602082840312156102bc57600080fd5b60006102ca84828501610280565b91505092915050565b600080604083850312156102e657600080fd5b60006102f485828601610280565b925050602061030585828601610295565b9150509250929050565b61031881610441565b82525050565b600061032b6011836103a6565b9150610336826104ac565b602082019050919050565b61034a81610473565b82525050565b6000602082019050610365600083018461030f565b92915050565b600060208201905081810360008301526103848161031e565b9050919050565b60006020820190506103a06000830184610341565b92915050565b600082825260208201905092915050565b60006103c282610473565b91506103cd83610473565b9250827fffffffffffffffffffffffffffffffffffffffffffffffffffffffffffffffff038211156104025761040161047d565b5b828201905092915050565b600061041882610473565b915061042383610473565b9250828210156104365761043561047d565b5b828203905092915050565b600061044c82610453565b9050919050565b600073ffffffffffffffffffffffffffffffffffffffff82169050919050565b6000819050919050565b7f4e487b7100000000000000000000000000000000000000000000000000000000600052601160045260246000fd5b7f4e6f7420656e6f75676820746f6b656e73000000000000000000000000000000600082015250565b6104de81610441565b81146104e957600080fd5b50565b6104f581610473565b811461050057600080fd5b5056fea2646970667358221220d1147fdadf9d17a55610b8a157e97dedb9300190d51f57d0efd6636f7c02007a64736f6c63430008040033",
  "linkReferences": {},
  "deployedLinkReferences": {}
}